:03000000020800F3
:0C080000787FE4F6D8FD758109020847F6
:1008E80053797374656D2052656164792E2E2E00DC
:1008F8002046616E204F4E002046616E204F4646CE
:1009080000204C69676874204F4E00204C69676866
:0609180074204F4646006A
:03098E000109005C
:080981008F993099FDC2992203
:10095E00120945FF600C120981740129F9E43AFA73
:07096E0080EE7F0D020981FC
:0C097500758920759850758DFDD28E227A
:10088C00E4F5A01209757BFF7A0879E812091E308D
:10089C0098FD859909850908C298E508B4310AD2F2
:1008AC00A07BFF7A0879F8802BE508B4320AC2A045
:1008BC007BFF7A097900801CE508B4330AD2A17B4E
:1008CC00FF7A097909800DE508B4340BC2A17BFFCE
:0C08DC007A09791312091EE4F50880B3B4
:07091E0012095E7F327E002A
:10092500E4FDFCC3ED9FEC9E5015E4FBFA0BBB0008
:0F093500010ABA04F8BBFBF50DBD00010C80E40C
:010944002290
:0300030002098966
:05098900C2A1C2A03272
:10080C0002088CE493A3F8E493A34003F68001F26E
:10081C0008DFF48029E493A3F85407240CC8C333ED
:10082C00C4540F4420C8834004F456800146F6DFBC
:10083C00E4800B010204081020408090098EE47EB5
:10084C00019360BCA3FF543F30E509541FFEE493B1
:10085C00A360010ECF54C025E060A840B8E493A378
:10086C00FAE493A3F8E493A3C8C582C8CAC583CAA3
:10087C00F0A3C8C582C8CAC583CADFE9DEE780BE5B
:010991000065
:10094500BB010689828A83E0225002E722BBFE02B0
:09095500E32289828A83E49322E3
:00000001FF
